:020000040800F2
:1000000000000120D9020008290300082903000884
:100010002903000829030008290300080000000044
:10002000000000000000000000000000290300089C
:100030002903000800000000290300082903000824
:1000400029030008290300082903000829030008E0
:1000500029030008290300082903000829030008D0
:1000600029030008290300082903000829030008C0
:1000700029030008290300082903000829030008B0
:1000800029030008290300082903000800000000D4
:10009000000000000000000000000000290300082C
:1000A0002903000829030008290300082903000880
:1000B000290300082903000859040008290300083F
:1000C0002903000829030008290300082903000860
:1000D0002903000829030008290300080000000084
:1000E0002903000829030008290300080000000074
:1000F00000000000000000000000000029030008CC
:100100000000000029030008290300082903000853
:1001100000000000000000000000000000000000DF
:1001200029030008290300082903000829030008FF
:10013000290300080000000000000000000000008B
:10014000000000000000000000000000290300087B
:1001500029030008290300082903000829030008CF
:100160002903000829030008000000000000000027
:10017000000000000000000000000000000000007F
:10018000000000002903000800000000000000003B
:040190002903000837
:100194000348044B834202D0034B03B11847704712
:1001A4000400002004000020000000000548064B65
:1001B4001B1AD90F01EBA301491002D0034B03B161
:1001C40018477047040000200400002000000000CD
:1001D40010B5064C237843B9FFF7DAFF044B13B18B
:1001E4000448AFF300800123237010BD04000020F5
:1001F400000000009C04000808B5054B1BB105492C
:100204000548AFF30080BDE80840FFF7CFBF00BF4B
:1002140000000000080000209C04000870B50D4D8B
:100224000D4C641BA4100026A64209D10B4D0C4CA6
:1002340000F032F9641BA4100026A64205D170BD5B
:1002440055F8043B98470136EEE755F8043B9847C8
:100254000136F2E7C4040008C4040008C40400081A
:10026400C804000870470000154B9A6802F00C029D
:10027400042A21D0082A21D159685A685B684902A6
:10028400C3F388134CBF0F490F4902F03F02B1FB7F
:10029400F2F253430A4A5268C2F301420132520055
:1002A400B3FBF2F3064A09499268C2F303128A5C6B
:1002B400D340074A13607047024BF3E7024BF1E760
:1002C4000038024040787D010024F400B4040008A2
:1002D40000000020DFF834D00D480E490E4A0023F8
:1002E40002E0D458C4500433C4188C42F9D30B4AE6
:1002F4000B4C002301E013600432A242FBD3FFF74E
:10030400B1FFFFF78BFF00F0B5F870470000012044
:100314000000002004000020CC0400080400002099
:1003240024000020FEE70000134B5A6822F4FF4229
:1003340022F07F025A605A6842F4A05242F0080246
:100344005A601A6842F080721A601A689201FCD5E9
:100354000A490A6842F002020A609A6842F00202FC
:100364009A609A6842F480529A60034A93681B0721
:10037400FCD5FFF779BF00BF00380240003C0240C3
:100384000D4A136B43F0020313630C4B5A6A42F099
:1003940044025A621A6822F470221A601A6842F4FB
:1003A40020221A605A6842F440725A609A6842F4F1
:1003B40070229A60704700BF003802400004024077
:1003C4000C4A136C43F0040313640B4B1A6842F099
:1003D40080021A60DA6842F00102DA6040F21F32E9
:1003E4009A626322DA6201221A60044B4FF080425F
:1003F4001A607047003802400008004000E100E045
:100404000B4A136C43F4001313640A4A936843F4CD
:1004140000139360084B5A6842F028025A60C822BD
:10042400DA610B221A621A6842F001021A607047FC
:1004340000380240002004E00054004008B5FFF7F3
:1004440073FFFFF79DFFFFF7BBFFBDE80840FFF711
:10045400D7BF0000054A136923F001031361044A5E
:10046400137843F001031370704700BF0008004085
:100474002000002008B5064B00221A80FFF7DEFF9B
:10048400044B1B78DA0700D4FEE703F0FE03F9E718
:100494002200002020000020F8B500BFF8BC08BCF2
:1004A4009E467047F8B500BFF8BC08BC9E4670472E
:1004B4000000000000000000010203040607080910
:0404C400FD0100082E
:0404C800D501000852
:0404CC000024F40014
:04000005080002D914
:00000001FF
