:020000040800F2
:10000000000001206D020008BD020008BD020008CA
:10001000BD020008BD020008BD020008000000008B
:10002000000000000000000000000000BD02000809
:10003000BD02000800000000BD020008BD0200086B
:10004000BD020008BD020008BD020008BD02000894
:10005000BD020008BD020008BD020008BD02000884
:10006000BD020008BD020008BD020008BD02000874
:10007000BD020008BD020008BD020008BD02000864
:10008000BD020008BD020008BD020008000000001B
:10009000000000000000000000000000BD02000899
:1000A000BD020008BD020008BD020008BD02000834
:1000B000BD020008BD020008BD020008BD02000824
:1000C000BD020008BD020008BD020008BD02000814
:1000D000BD020008BD020008BD02000800000000CB
:1000E000BD020008BD020008BD02000800000000BB
:1000F000000000000000000000000000BD02000839
:1001000000000000BD020008BD020008BD0200089A
:1001100000000000000000000000000000000000DF
:10012000BD020008BD020008BD020008BD020008B3
:10013000BD020008000000000000000000000000F8
:10014000000000000000000000000000BD020008E8
:10015000BD020008BD020008BD020008BD02000883
:10016000BD020008BD020008000000000000000001
:10017000000000000000000000000000000000007F
:1001800000000000BD0200080000000000000000A8
:04019000BD020008A4
:100194000348044B834202D0034B03B11847704712
:1001A4000000002000000020000000000548064B6D
:1001B4001B1AD90F01EBA301491002D0034B03B161
:1001C40018477047000000200000002000000000D5
:1001D40010B5064C237843B9FFF7DAFF044B13B18B
:1001E4000448AFF300800123237010BD00000020F9
:1001F40000000000FC02000808B5054B1BB10549CE
:100204000548AFF30080BDE80840FFF7CFBF00BF4B
:100214000000000004000020FC02000870B50D4D31
:100224000D4C641BA4100026A64209D10B4D0C4CA6
:1002340000F062F8641BA4100026A64205D170BD2C
:1002440055F8043B98470136EEE755F8043B9847C8
:100254000136F2E71403000814030008140300082D
:100264001803000870470000DFF834D00D480E4929
:100274000E4A002302E0D458C4500433C4188C42FC
:10028400F9D30B4A0B4C002301E013600432A24261
:10029400FBD3FFF7E7FFFFF7C1FF00F00FF870474C
:1002A4000000012000000020000000201C030008C2
:1002B400000000201C000020FEE700000B4A136B26
:1002C40043F0040313630A4B1A6842F080621A6015
:1002D4005A6842F400525A605A6982F400525A61D0
:1002E400044A00BF013AFCD1F6E700BF00380240DF
:1002F40000080240006A1800F8B500BFF8BC08BC4A
:100304009E467047F8B500BFF8BC08BC9E467047CF
:04031400FD010008DF
:04031800D501000803
:040000050800026D80
:00000001FF
